:100800005072657373204120666F72204163636F7D
:10081000756E7420646973706C617920616E6420F8
:100820005720666F72207769746864726177696EA9
:100830006720636173680D0A0048656C6C6F2C203B
:10084000506C6561736520656E74657220416363E9
:100850006F756E74204E756D6265720D0A004E6F75
:100860002073756368206163636F756E742C2070EC
:100870006C6561736520656E7465722076616C6964
:10088000642064657461696C730D0A004163636F71
:10089000756E7420486F6C6465723A205369746198
:1008A0000D0A004163636F756E742042616C616E66
:1008B00063653A2031303030300D0A004163636F98
:1008C000756E7420486F6C6465723A204769746174
:1008D0000D0A0057697468647261772073746174DB
:1008E000652C20656E746572206163636F756E742C
:1008F000206E756D6265720D0A00456E746572201A
:10090000416D6F756E742C20696E2068756E64720F
:100910006564730D0A0052656D61696E696E6720CA
:1009200062616C616E63653A200D0A0035303020DB
:100930004E6F7465733A202020313030204E6F7432
:0709400065733A200D0A0067
:100BEA00C101C100060E0000000000000608000056
:100BFA000000000003170000000314000000051A9B
:050C0A000000000000E5
:100C3500758920758DF3759850D28ED2AFD2AC22BE
:100947008E218F228B238A2489257C277D10120AEA
:100957003AEF2430120A06AE21AF227C277D10120F
:100967000A3A7E037FE8CFCDCFCECCCE120A3AEF3C
:100977002430AB23AA24A925900001120A18AE211E
:10098700AF227C037DE8120A3A7E007F64CFCDCF89
:10099700CECCCE120A3AEF2430AB23AA24A9259055
:1009A7000002120A18AE21AF227C007D64120A3AB7
:1009B7007E007F0ACFCDCFCECCCE120A3AEF2430BD
:1009C700AB23AA24A925900003120A18AE21AF224F
:1009D7007C007D0A120A3AED2430AB23AA24A9250C
:0609E700900004020A1852
:100BAC008E268F278B288A29892A7C007D0A120A97
:100BBC003A7E007F0ACFCDCFCECCCE120A3AEF24AC
:100BCC0030120A06AE26AF277C007D0A120A3AEDD7
:0E0BDC002430AB28AA29A92A900001020A1889
:080C5F008F993001FDC2012252
:100C10008B2B8A2C892DAB2BAA2CA92D1209ED60C8
:100C200013052DE52D7002052C14F91209EDFF12A4
:050C30000C5F80E222D0
:090C5500E4FF3000FDC200AF997C
:010C5E002273
:03002300020C4587
:100C4500309905C299D20132309804C298D2003247
:100A8F00E4FE120C357BFF7A0879008073120C5547
:100A9F00AE07EE24CF603114603F14605D146065C3
:100AAF0024DD604624F6601024EA60462436701078
:100ABF007BFF7A08793980487BFF7A087939804043
:100ACF007BFF7A08795E80387BFF7A08798C120C6D
:100ADF00107BFF7A0879A380277BFF7A0879BC12F5
:100AEF000C107BFF7A0879A380167BFF7A0879D3E5
:100AFF00800E7BFF7A0879D380067BFF7A0879FA1C
:100B0F00120C1080887BFF7A0879FA120C10020AF7
:010B1F009C39
:03000000020B20D0
:0C0B2000787FE4F6D8FD75812D020B678C
:1009ED00BB010689828A83E0225002E722BBFE0208
:0909FD00E32289828A83E493223B
:100A0600BB010689828A83F0225002F722BBFE01CF
:020A1600F322C9
:100A1800F8BB010DE58229F582E5833AF583E8F014
:100A2800225006E92582C8F622BBFE05E92582C8C0
:020A3800F222A8
:100A3A00BC000BBE0029EF8DF084FFADF022E4CCA0
:100A4A00F875F008EF2FFFEE33FEEC33FCEE9DEC69
:100A5A00984005FCEE9DFE0FD5F0E9E4CEFD22EDAF
:100A6A00F8F5F0EE8420D21CFEADF075F008EF2FF9
:100A7A00FFED33FD4007985006D5F0F222C398FDEA
:050A8A000FD5F0EA2287
:100B2C00020A8FE493A3F8E493A34003F68001F246
:100B3C0008DFF48029E493A3F85407240CC8C333CA
:100B4C00C4540F4420C8834004F456800146F6DF99
:100B5C00E4800B0102040810204080900BEAE47E34
:100B6C00019360BCA3FF543F30E509541FFEE4938E
:100B7C00A360010ECF54C025E060A840B8E493A355
:100B8C00FAE493A3F8E493A3C8C582C8CAC583CA80
:100B9C00F0A3C8C582C8CAC583CADFE9DEE780BE38
:010C0F0000E4
:00000001FF
