:03000000020030CB
:02001B000832A9
:1000300075A000759000516B516B51007480513D5B
:10004000516B900300515D516B780075891175A853
:1000500088758DB1758BE0D28EB28751BCB817F917
:100060007800C28E758DB1758BE0D28E02006FB2B2
:1000700087519CB817F97800C28E758DB1758BE0E9
:10008000D28E020085B28751ACB817F97800C28EC3
:10009000758DB1758BE0D28E02009BB287519CB8F2
:1000A00017F97800C28E758DB1758BE0D28E020083
:1000B000B1B287518CB823F97800C28E758DB175B5
:1000C0008BE0D28E0200C7C287519CB811F978002C
:1000D000C28E758DB1758BE0D28E0200DDB2875174
:1000E0008CB823F97800C28E758DB1758BE0D28EF5
:1000F0000200F3B287517CB823F97800C28E758D67
:09010000B1758BE0D28E020030D3
:1002000075A038C280C281D282516BC282516B7597
:10021000A00CC280C281D282516BC282516B75A088
:1002200001C280C281D282516BC282516B75A0061D
:10023000C280C281D282516BC282516B22F5A0C2B0
:1002400080C281D282516BC282516B22F5A0D280D2
:10025000C281D282516BC282516B516B22C0E0E4E9
:10026000936005514CA380F7D0E022C000C0017814
:100270000179FFD9FED8FAD001D00022758CF4752F
:100280008A2AD28C308DFDC28CC28D22758CF57578
:100290008A72D28C308DFDC28CC28D22758CF07525
:1002A0008A38D28C308DFDC28CC28D22758CF2754D
:1002B0008AB7D28C308DFDC28CC28D22758CEE75C2
:0C02C0008A3FD28C308DFDC28CC28D2292
:0D030000524F4C4C494E472054494D45008A
:00000001FF
